:020000040800F2
:1000000048A100202903000881810008C96B00086D
:100010007D810008A719000811C100080000000038
:10002000000000000000000000000000690200085D
:100030005B1D000800000000C50200087F8F00085B
:100040004303000843030008430300084303000878
:1000500043030008430300085D1D00084303000834
:1000600043030008671D0008711D000843030008D2
:100070004303000843030008430300084303000848
:100080004303000843030008430300084303000838
:10009000AD19000843030008430300087B1D000856
:1000A0004303000843030008430300084303000818
:1000B0004303000843030008430300084303000808
:1000C00043030008430300084303000843030008F8
:1000D000430300084303000843030008B9950008E0
:1000E00043030008430300084303000843030008D8
:1000F000430300084303000843030008011B0008F2
:1001000043030008430300084303000843030008B7
:1001100043030008430300084303000843030008A7
:10012000430300087D1B00088D1B000843030008E3
:100130004303000843030008430300084303000887
:10014000BD19000843030008430300088581000827
:10015000430300085D1C00086D1C000843030008F1
:100160004303000843030008430300084303000857
:100170004303000843030008430300080000000095
:10018000430300084303000800F002F800F05CF8A5
:100190000AA090E8000C82448344AAF10107DA45E2
:1001A00001D100F051F8AFF2090EBAE80F0013F0D8
:1001B000010F18BFFB1A43F00103184788430100E1
:1001C000A84301000A444FF0000C10F8013B13F063
:1001D000070408BF10F8014B1D1108BF10F8015BA0
:1001E000641E05D010F8016B641E01F8016BF9D193
:1001F00013F0080F1EBF10F8014BAD1C0C1B09D1EA
:100200006D1E58BF01F801CBFAD505E014F8016B5B
:1002100001F8016B6D1EF9D59142D6D370470000ED
:100220000023002400250026103A28BF78C1FBD8FF
:10023000520728BF30C148BF0B6070471FB513F08D
:100240002DFB1FBD10B510BD00F091FA1146FFF750
:10025000F5FF0FF079FE00F0AFFA03B4FFF7F2FFFD
:1002600003BC00F0BFFA00002C4B19680868B0E826
:10027000F04F80F30988BFF36F8F4FF0000080F3D9
:10028000118870470000000008480068006880F38B
:1002900008884FF0000080F3148862B661B6BFF39F
:1002A0004F8FBFF36F8F00DF00BF00BF08ED00E08E
:1002B000DFF80C00016841F470010160704700BF75
:1002C00088ED00E0EFF30980BFF36F8F134B1A68DE
:1002D0001EF0100F08BF20ED108A20E9F04F1060CB
:1002E00009B44FF0500080F31188BFF34F8FBFF374
:1002F0006F8F11F04BFE4FF0000080F3118809BCA6
:1003000019680868B0E8F04F1EF0100F08BFB0EC95
:10031000108A80F30988BFF36F8F70479C0200201A
:10032000EFF30580704700000948804709480047FF
:10033000FEE7FEE7FEE7FEE7FEE7FEE7FEE7FEE795
:10034000FEE7FEE704480549054A064B70470000F2
:100350004D90000889010008489B002048A100201A
:10036000489D0020489D00209FED1A1AF5EE000AD6
:1003700040EE010ABDEEE00AF5EEC00A10EE100AEA
:10038000F1EE10FA38BF401E00EE100A1349F7EEE6
:10039000001AB8EEC00A30EEC00ADFED0F0A20EEF8
:1003A000200AFCEEC00A10EE900AC0F3080000EE2E
:1003B000900A01EB8000F8EE600A90ED011A70EEF1
:1003C000600A90ED000A71EEE01A21EE800A00EE5C
:1003D000810A704783F9223E00000044E43C010892
:1003E000DFED190AB5EEC00A60EE200ABDEEE01A94
:1003F00011EE100AF1EE10FA38BF401E00EE100A9E
:100400001349F7EE001AB8EEC00A30EEC00ADFED6D
:100410000F0A60EE200ABCEEE00A10EE100AC0F3EC
:10042000080000EE100A01EB8000B8EE400A90EDE3
:10043000011A70EEC00A90ED000A71EEE01A21EE8A
:10044000800A00EE810A704783F9223E00000044D2
:10045000E43C010853EA020C00F069802DE9F04BFE
:100460004FF00006002B1FBFB3FA83F503FA05F423
:1004700024FA05F65E4012BF1643B2FA82F502FA7C
:1004800005F4C5F120051EBF22FA05FC44EA0C0460
:10049000203556EA044C4FEA144418BF641C4FF050
:1004A00000084FF00009904271EB030C39D300298A
:1004B00019BFB1FA81F701FA07F6B0FA80F700FA2E
:1004C00007F6C7F120071EBF20FA07FC46EA0C0614
:1004D0002037B6FBF4FCA7EB0507103F07F01F0B16
:1004E000CBF120060CFA0BFB2CFA06F644BFB34600
:1004F0000026202FA4BF5E464FF0000B5BEA060CDF
:1005000008BF4FF0010B19EB0B09ABFB027C48EB6A
:100510000608C01B06FB02CC0BFB03CC71EB0C01E5
:10052000C1E70B46024641464846BDE8F08B13B58D
:100530004FF000004FF00001AFF30080BDE81C4019
:10054000704710B5431C02E010F8011B71B1810720
:10055000FAD14FF0013202C88C1A8C4314EAC2114E
:10056000F9D0C01A0A0603D0C01E10BDC01A10BDB3
:100570000A0401D0801E10BD0902FCD0401E10BD2F
:10058000032A40F2308010F0030C00F0158011F8BF
:10059000013BBCF1020F624498BF11F801CB00F897
:1005A000013B38BF11F8013BA2F1040298BF00F8EB
:1005B00001CB38BF00F8013B11F0030300F02580A8
:1005C000083AC0F0088051F8043B083A51F804CBCF
:1005D000A0E80810F5E7121D5CBF51F8043B40F895
:1005E000043BAFF30080D20724BF11F8013B11F8A0
:1005F00001CB48BF11F8012B24BF00F8013B00F8E4
:1006000001CB48BF00F8012B704710B5203AC0F06D
:100610000B80B1E81850203AA0E81850B1E8185003
:10062000A0E81850BFF4F5AF5FEA027C24BFB1E840
:100630001850A0E8185044BF18C918C0BDE81040B1
:100640005FEA827C24BF51F8043B40F8043B08BFBA
:100650007047D20728BF31F8023B48BF11F8012B81
:1006600028BF20F8023B48BF00F8012B704702F07A
:10067000FF0343EA032242EA024200F002B84FF0CD
:1006800000020429C0F0128010F0030C00F01B805F
:10069000CCF1040CBCF1020F18BF00F8012BA8BF6D
:1006A00020F8022BA1EB0C0100F00DB85FEAC17C31
:1006B00024BF00F8012B00F8012B48BF00F8012BE4
:1006C00070474FF0000200B5134694469646203915
:1006D00022BFA0E80C50A0E80C50B1F12001BFF4FB
:1006E000F7AF090728BFA0E80C5048BF0CC05DF861
:1006F00004EB890028BF40F8042B08BF704748BFAF
:1007000020F8022B11F0804F18BF00F8012B704722
:1007100070477047704710B500F00CF8006810BDC6
:1007200010B5044600F006F8046010BD004870479C
:10073000E49A002000487047E49A00201FB584B076
:1007400000200A9C06AB04AA02A90094AFF3008023
:1007500018B1DDE9020108B010BD0348204000F0E7
:1007600039F800200146F6E70000207C7047754606
:10077000FFF7DCFFAE4605006946534620F0070050
:10078000854618B020B5FFF7DDFDBDE820404FF0ED
:1007900000064FF000074FF000084FF0000B21F06B
:1007A0000701AC46ACE8C009ACE8C009ACE8C00938
:1007B000ACE8C0098D46704710B50446AFF3008021
:1007C0002046BDE81040FFF748BD002801D000F0EA
:1007D00009B8704710B500F025F8BDE81040FFF7E4
:1007E000F4BF000001491820ABBEFEE7260002005E
:1007F00070B505460C460A2000E06D1C00F068F854
:1008000035B128780028F8D102E0641C00F060F8C7
:1008100014B120780028F8D1BDE870400A2000F01B
:1008200057B8000010B5022803D0410103D50DA12F
:1008300012E0002010BD010101D50FA10CE0C100A4
:1008400001D511A108E0810001D512A104E040000A
:1008500001D513A100E0002115A0FFF7C9FF012079
:1008600010BD0000496E76616C6964204F7065723E
:100870006174696F6E0000004469766964652042A6
:1008800079205A65726F00004F766572666C6F77DB
:1008900000000000556E646572666C6F77000000A2
:1008A000496E657861637420526573756C740000DD
:1008B0005349474650453A2041726974686D6574E2
:1008C000696320657863657074696F6E3A20000013
:1008D00008B569468DF800000320ABBE08BD0000D6
:1008E00055494A6822F440324A604A6843681A43CC
:1008F0004A600268526822F4807203685A60026893
:100900005368026943EA022203685A600268526827
:1009100022F0407203685A600268526883681A4382
:1009200003685A600268926822F4006203689A6061
:1009300002689268C3681A4303689A603F4B826AF0
:100940009A4218D00268926822F0706203689A6036
:1009500002689268836A1A4303689A600268926820
:1009600022F0405203689A6002689268C36A1A4390
:1009700003689A600BE00268926822F07062036874
:100980009A600268926822F0405203689A60026896
:10099000926822F0020203689A6002689368027EFD
:1009A00043EA420203689A602022125CA2B1026804
:1009B000526842F4006203685A600268526822F486
:1009C000604203685A6002685368426A521E43EAF2
:1009D000423203685A6005E00268526822F40062FD
:1009E00003685A600268D26A22F470020368DA620D
:1009F0000268D36A828B521E43EA02520368DA62AB
:100A00000268926822F4007203689A600268936830
:100A100090F8302043EA422203689A6002689268A4
:100A200022F4806203689A6002689368426943EA2C
:100A3000822203689A607047002301400100000F82
:100A400010B52DED028BB0EE408AB0EE480A0BF0E7
:100A500091FBBDEC028B10BD10B52DED028BB0EEFD
:100A6000408AF0EE608AF0EE680AB0EE480A0BF0B9
:100A700017FCBDEC028B10BD10B52DED028BB0EE56
:100A8000408AB0EE480AFFF76FFCBDEC028B10BD48
:100A9000F0EE400AF5EEC00AF1EE10FA02DDB0EE1B
:100AA000600A7047B1EE600AFBE7000018B19FEDE5
:100AB000020A80ED000A70470000000018B1B3EE92
:100AC000060A80ED000A704770B52DED0C8B84B0DE
:100AD00006460C4615469FED990AF0EE408A9FEDBA
:100AE000970AB0EE409A9FED950AF0EE40BA9FED5E
:100AF000930AF0EE409A9FED910AB0EE40AA0EB133
:100B000004B11DB904B0BDEC0C8B70BD8C48FFF76F
:100B1000CDFF8C48FFF7D2FF8A48D0ED000A9FED49
:100B20008A1A60EE810AB0EE600A00F02DF9F0EE4C
:100B3000408A28EEA80AF0EE408A8248D0ED000AEA
:100B4000B0EE001A60EE810A9FED7F1A60EE810A16
:100B5000B0EE600A00F018F9B0EE409A29EE090AEA
:100B6000B0EE409ADFED790AB7EE000A00EEA80A6F
:100B7000DFED770A00EEC90ADFED760A20EE200AE3
:100B8000754880ED000A6E4890ED000ADFED730AAB
:100B900080EE201AB7EE000A31EE000A20EE000ABD
:100BA0006D48D0ED000A80EE801A6D4880ED001A85
:100BB00094ED000AB5EEC00AF1EE10FA0DD194EDF5
:100BC000010AB5EEC00AF1EE10FA06D194ED020A60
:100BD000B5EEC00AF1EE10FA46D09FED580AB0EE1D
:100BE000408A0020019002900390D4ED000A60EE4C
:100BF000A00A94ED011AD4ED011A41EE210A94EDF8
:100C0000021AD4ED021A41EE210AB0EE600A00F099
:100C1000A9F8B0EE408A94ED000A20EE080A8DEDA6
:100C2000010A94ED010A20EE080A8DED020A94ED06
:100C3000020A20EE080A8DED030ADDED010AF1EE4D
:100C4000600AB0EE600AFFF7FBFEF0EE409A9DED01
:100C5000031AF0EE410A9DED021AB0EE410AFFF7C9
:100C6000FBFEB0EE40AA07E09FED340AF0EE409A9A
:100C70009FED320AB0EE40AA95ED000AB5EEC00A2B
:100C8000F1EE10FA0DD195ED010AB5EEC00AF1EEC4
:100C900010FA06D195ED020AB5EEC00AF1EE10FA8F
:100CA0003CD0B0EE690A00F06FF8B0EE408AB0EECA
:100CB000690AFFF7E1FEB0EE40DAB0EE4A0A00F052
:100CC00063F8F0EE40AAB0EE4A0AFFF7D5FEB0EEA8
:100CD00040BA28EE2A0AD5ED010A20EE200AD5ED09
:100CE000000A0DEE200A68EE0B0A95ED021A00EEDE
:100CF000810AB0EE40CA95ED010A20EE0B0AD5ED4F
:100D0000020A0AEEE00AF0EE40CAF0EE6C0AB0EE1B
:100D10004C0AFFF7A1FEF0EE40BA03E09FED070A90
:100D2000F0EE40BAB0EE4A1AF0EE690AB0EE6B0A85
:100D300030460BF061FE00BFE4E60000000000005A
:100D4000A8030020AC03002035FA8E3CC1BFAD3BA8
:100D50009DF8C5362F7C1C41B0030020506CC24A60
:100D6000B403002010B52DED028BB0EE408AB0EE3A
:100D7000480A0BF0F5FBB7EE001AC1EE000AB0EE20
:100D8000600ABDEC028B10BD10B52DED028BB0EEEC
:100D9000408AB0EE480AFFF723FBBDEC028B10BD82
:100DA0002DE9F0412DED028B9AB00546B0EE408A58
:100DB0000E461746984600201790189019901490E8
:100DC000159016904DB146B13FB1B8F1000F04D067
:100DD000B5EEC08AF1EE10FA05D100201AB0BDECD4
:100DE000028BBDE8F08196ED000A8DED170A96EDB5
:100DF000010A8DED180A96ED020A8DED190A97ED9C
:100E0000000A8DED140A97ED010A8DED150A97ED94
:100E1000020A8DED160A17AA14A928460BF020FC29
:100E2000402104A8FFF74DFC0020009001900290A3
:100E30000390002417A904A810F0C2FC00BF30E002
:100E400004A800EB041090ED000AD5ED000A20EE96
:100E5000200A04A800EB0410D0ED010A95ED011A58
:100E600000EE810A04A800EB0410D0ED020A95ED13
:100E7000021A00EE810A04A800EB0410D0ED030A68
:100E800095ED031A00EE810A20EE080AF0EE000A42
:100E900080EE201A684600EB840080ED001A601C8A
:100EA000C4B2042CCCDB002410E005EB840090EDF0
:100EB000000A684600EB8400D0ED000A30EE200AFC
:100EC00005EB840080ED000A601CC4B2042CECDB4E
:100ED00028460FF039FF012080E7000010B50122FD
:100EE0001021024802F07AFC10BD00000000024010
:100EF00010B500221021024802F070FC10BD000065
:100F0000000002407047000010B50122114602485F
:100F100002F064FC10BD00000004024010B5002285
:100F20000121024802F05AFC10BD000000040240FA
:100F300010B543781B021BB20478234300EE103A2D
:100F4000B8EEC01A1C4BD3ED001A21EE211A81ED28
:100F5000001AC3781B021BB28478234300EE103AB8
:100F6000B8EEC01A144BD3ED001A21EE211A81ED10
:100F7000011A43791B021BB20479234300EE103A95
:100F8000B8EEC01A0C4BD3ED001A21EE211A81EDF8
:100F9000021A037A1B04C47943EA042384792343A5
:100FA00000EE903AB8EE601ADFED041A21EE211A35
:100FB00082ED001A10BD00006002002000401C42BB
:100FC000704710B5044620460FF022F810BD10B54A
:100FD000044620460DF062F810BD0000427812026F
:100FE00012B203781A4300EE102AF8EEC00A144A2F
:100FF00092ED001A60EE810AC1ED000AC278120279
:1010000012B283781A4300EE102AF8EEC00A0C4A96
:1010100092ED001A60EE810AC1ED010A42791202D6
:1010200012B203791A4300EE102AF8EEC00A044AFD
:1010300092ED001A60EE810AC1ED020A70470000CD
:101040006402002010B50024FFF75CFFFFF7B8FF33
:101050000BF044FE10B144F0800402E00BF0A4FD5C
:1010600004430CF033F810B144F0400402E00BF0FC
:10107000B3FF0443204610BD2DE9FC4105460E4652
:101080001746002000900190FFF732FF922000F0F9
:10109000D1F806226946122000F0ACF8FFF71EFFD7
:1010A0009DF80100000200B29DF8001040EA010422
:1010B00000EE104AB8EEC00A4C48D0ED000A20EE0F
:1010C000200A86ED000A9DF80300000200B29DF898
:1010D000021040EA010400EE104AB8EEC00A43488C
:1010E000D0ED000A20EE200A86ED010A9DF80500E9
:1010F000000200B29DF8041040EA010400EE104A1C
:10110000B8EEC00A3948D0ED000A20EE200A86ED7C
:10111000020AFFF703FF08226946002000F06AF880
:10112000FFF7F2FE9DF800000F2838D19DF803006C
:10113000000200B29DF8021040EA010400EE104ADD
:10114000B8EEC00A2A48D0ED000A20EE200A85ED4C
:10115000000A9DF80500000200B29DF8041040EA64
:10116000010400EE104AB8EEC00A2148D0ED000A92
:1011700020EE200A85ED010A9DF80700000200B26A
:101180009DF8061040EA010400EE104AB8EEC00ACD
:101190001748D0ED000A20EE200A85ED020AFFF77D
:1011A000A7FEA22000F046F802226946222000F0A5
:1011B00021F8FFF793FE9DF80000C0009DF8011094
:1011C00040EA6114B4F5806F02DBA4F5006004B25C
:1011D00000EE104AF8EEC00AB4EE001AB3EE070AA9
:1011E00000EE810A87ED000ABDE8FC816002002064
:1011F0006402002070B506460C46154646F0800095
:1012000000F018F806E0552000F014F82070641C77
:10121000681EC5B2002DF6D170BD70B504460D46EE
:1012200044F0800000F006F8552000F003F8287024
:1012300070BD000001B582B04FF47A70012301AA9D
:1012400002A90090024804F017FD9DF804000EBDAD
:10125000CC0C002010B502461378DB00547843EA2A
:101260006410B0F5806F02DBA0F5006318B200EEE9
:10127000100AF8EEC00AB4EE001AB3EE070A00EE48
:10128000810A81ED000A10BD70B505460C4628465E
:10129000FFF7D0FF2046FFF7CDFF70BD30B52DED35
:1012A000088B85B005469FED6D0AB0EE408A9FED34
:1012B0006B0AB0EE409A9FED690AF0EE408A00207A
:1012C00001900290039004900024D5ED801AB0EEB6
:1012D000611AD5ED7F1AF0EE610AD5ED7E1AB0EEF7
:1012E000610A01A80CF0F6FD287C03281AD100BF82
:1012F00012E001A800EB840090ED000ABDEEC00AE8
:1013000010EE100A01B204EB840205F1140000EBA8
:1013100082000182601CC4B2042CEADB05B0BDEC83
:10132000088B30BD002434E001A800EB840090ED70
:10133000000A04EB840105F1140000EB810080ED4C
:10134000030A04EB840205F1140000EB820090ED27
:10135000030A10EE101A084612F0EAF941EC1B0BD2
:10136000B0EE4B0AF0EE6B0A0BF0F0F8B0EE40AACC
:10137000F0EE60AA51EC1A0B11F07EFD08EE900A17
:10138000B4EEE88AF1EE10FA01D2B0EE688A601C81
:10139000C4B2042CC8DBB1EE000AB4EEC08AF1EE90
:1013A00010FA1DDDB1EE000AC0EE080AB0EE609A38
:1013B000002413E004EB840105F1140000EB81002C
:1013C00090ED030A20EE090A04EB840105F11400F4
:1013D00000EB810080ED030A601CC4B2042CE9DB41
:1013E00000241DE004EB840205F1140101EB8201ED
:1013F00091ED031AF0EE410A04EB840205F11401A9
:1014000001EB820191ED021AB0EE410A04EBC40235
:1014100005F1640101EBC20006F0ECFF601CC4B2F0
:10142000042CDFDB002415E004EBC40105F16400AB
:1014300000EBC10090ED080ABDEEC00A10EE100AE4
:1014400001B204EB840205F1140000EB820001827A
:10145000601CC4B2042CE7DB00BF5FE700000000A3
:1014600070B5044604B970BD002500BF2DE005EB42
:10147000850104F1140050F82100B0F9020000EEDB
:10148000100AB8EEC00ADFED4A0A20EE200A05EB8A
:10149000850104F1140000EB810080ED020A05EBE8
:1014A000C50104F1640000EBC10090ED0C0ADFED12
:1014B000410A20EE200A05EB850104F1140000EB3F
:1014C000810080ED010A681CC5B2042DCFDB94EDCC
:1014D000070AB1EE400AD4ED0C0A30EE200AD4ED32
:1014E000110A30EE200AD4ED160A30EE600AF5EE4D
:1014F000000A20EE200A84ED7B0A94ED070AB1EE83
:10150000400AD4ED0C0A30EE600AD4ED110A30EE38
:10151000200AD4ED160A30EE200AF5EE000A20EE7D
:10152000200A84ED7C0A94ED070AB1EE400AD4ED5E
:101530000C0A30EE600AD4ED110A30EE600AD4EDE8
:10154000160A30EE600AF5EE000A20EE200ADFED02
:101550001A0A80EE201A84ED7D1AE068D0ED000AA8
:10156000606890ED2E1A70EEC10AB0EE600A9FED31
:10157000131ADFED130A0EF0B7FC84ED880AE06859
:10158000D0ED010AA06890ED2E1A70EEC10AB0EEFF
:10159000600A9FED0A1ADFED0A0A0EF0A5FC84ED41
:1015A000890AE06890ED020A84ED8A0A00BF5AE7D2
:1015B0000A01DA390000FA43CDCC4C3EDB0F49403A
:1015C000DB0F49C070B5044604B970BD0320207418
:1015D0000DF092F820600CF061FFE0600DF0C6F8AD
:1015E00060600DF085F8A060002517E028460CF03B
:1015F000F1FF05EB850204F1140141F8220005EB2F
:10160000C502503101EBC200DFED1C0A9FED1C0A40
:101610001C4A002107F00CF8681CC5B2042DE5DB5C
:10162000DFED190AB1EE080A184A002104F5C2706C
:1016300006F0FEFF16499FED170A04F5E6700CF060
:1016400011FE15499FED130A04F5EE700CF00AFE29
:10165000B0EE000A84ED840AB8EE000A84ED850A33
:10166000B7EE080A84ED860ABFEE080A84ED870A01
:101670002046FFF7F5FE00BFA7E700000000FA4490
:1016800000007A46403C0108CDCC4C3E4C3C010861
:10169000583C01086F12033B5C3C010800B97047DD
:1016A000417C027C914200D1F9E7417C31B1017C5F
:1016B00021B99FED0F0A80ED820A14E0417C0129D7
:1016C00007D0017C012904D190ED880A80ED830ABE
:1016D00009E0417C022906D0017C022903D190ED6A
:1016E000880A80ED830A017C417400BFD7E70000BF
:1016F0000000000010B52DED028B84B004461CB92B
:1017000004B0BDEC028B10BD9FED9E0A8DED030A67
:101710009FED9C0A8DED020A9FED9A0A8DED010A5C
:10172000224602A903A80CF0C1FA2068B0F9000013
:1017300000EE100AB8EEC00ADFED930A20EE200A90
:101740008DED010A9DED010A84ED800A94ED840A75
:10175000B0EE401A94ED850AF0EE400A9DED030AC2
:101760000CF000FE84ED7E0A94ED860AB0EE401A7D
:1017700094ED870AF0EE400A9DED020A0CF0F2FDAE
:1017800084ED7F0A234601AA02A903A80CF0CCF835
:10179000207C002870D19FED7B0AB0EE408A9FED3F
:1017A000790AF0EE408A6068D0ED2E0AF1EE600A08
:1017B000B0EE600AFEF714FEB0EE408A6068D0ED2D
:1017C0002E0AF1EE600AB0EE600AFEF7CDFDF0EEF3
:1017D000408A9DED030A28EE800ADDED020A08EE3C
:1017E000200A84ED7E0AB1EE480ADDED030A20EE00
:1017F000200ADDED020A08EEA00A84ED7F0A9FEDC3
:10180000631ADFED630A9DED010A0EF06DFB84EDB6
:10181000820A94ED821AF0EE410A606890ED2E1A69
:10182000B0EE410A04F5C27006F0E4FDB1EE400AE4
:1018300084ED800AD4ED841AB0EE611AD4ED851AD5
:10184000F0EE610AD4ED7E1AB0EE610A0CF08AFD6A
:1018500084ED7E0AD4ED861AB0EE611AD4ED871AB3
:10186000F0EE610AD4ED7F1AB0EE610A0CF07AFD59
:1018700084ED7F0A83E0FFE7207C012844D19FEDBF
:10188000410AB0EE408A9FED411ADFED410A9DED1D
:10189000010A0EF029FB84ED830AD4ED830A94ED4E
:1018A000881A70EEC10AB0EE600A9FED381ADFEDBB
:1018B000380A0EF019FBB0EE408AF0EE480A9FEDB0
:1018C000310A04F5C27006F095FD84ED800A94EDAE
:1018D000840AB0EE401A94ED850AF0EE400A9DEDC0
:1018E000030A0CF03FFD84ED7E0A94ED860AB0EE0B
:1018F000401A94ED870AF0EE400A9DED020A0CF0C2
:1019000031FD84ED7F0A3AE0207C022820D19DED54
:10191000010A84ED800A94ED840AB0EE401A94ED39
:10192000850AF0EE400A9DED030A0CF01BFD84EDE4
:101930007E0A94ED860AB0EE401A94ED870AF0EE26
:10194000400A9DED020A0CF00DFD84ED7F0A16E0C1
:10195000207C032813D19DED030A84ED7E0A9DEDC2
:10196000020A84ED7F0A9DED010A84ED800A9FED55
:10197000050A84ED740A9FED030A84ED780A00BF1E
:10198000BEE60000000000000AD723BCDB0F494080
:10199000DB0F49C010B5044604B910BD20460CF059
:1019A00013F800BFF9E700BFFEE7000010B50248DA
:1019B00000F0D0FF10BD0000F00A002010B5024872
:1019C00000F0C8FF10BD0000180B0020F8B5074656
:1019D0000C4615461E464FF400700D490860002065
:1019E0008860C86008200861380A0A4908704F708A
:1019F000200A8870CC70280A08714D71300A8871ED
:101A0000CE716B460A460249034800F0A8FDF8BDB6
:101A10008C330020E0010020F00A0020F8B50746D2
:101A20000C4615461E4640F2FF100D490860002086
:101A30008860C86008200861380A0A4908704F7039
:101A4000200A8870CC70280A08714D71300A88719C
:101A5000CE716B460A460249034800F080FDF8BD8E
:101A600074330020D8010020180B00200346042BFB
:101A700015D007DC7BB1012B0ED0022B0DD0032B30
:101A800012D10BE0202B0BD0212B0AD0222B09D016
:101A9000232B09D107E008E007E006E005E004E0B9
:101AA00003E002E001E000E000BF00BF002070475B
:101AB0000020704710B500220449054808F0B7F827
:101AC0000449034808F0A4F8002010BD4026002077
:101AD00038120020401E002070B504460D462146F5
:101AE000034808F095F8024808F05EF8002070BD41
:101AF0003812002010B503460C460021084610BDE0
:101B00001B48406800F0006080B31A48406B0068D2
:101B10001949884205D94FF0006017494C390860CF
:101B20001CE01448406B00681149B831884205D95F
:101B30004FF000601049503908600FE00D48406BCD
:101B400000680B495831884204D94FF000600849B9
:101B5000C86003E04FF000600549886005480068F0
:101B6000006840F40070034909680860704700008D
:101B700000600240940B00205864024010B50248F7
:101B800001F050FA10BD00007811002010B52C486B
:101B9000006800F40010002850D04FF0F46028498D
:101BA000083108602748007800F0020078B1254825
:101BB000007820F00200234908700846007840F0C1
:101BC00004000870012211461F4801F007FE1F485B
:101BD000007800F0020078B11C48007820F0020084
:101BE0001A4908700846007840F004000870012285
:101BF0001021174801F0F2FD1648007800F00200AD
:101C000078B11448007820F00200124908700846A4
:101C1000007840F004000870012210210C4801F007
:101C2000DDFD0DF0B3FE0748007800F0040028B198
:101C30000948006840F001000749086010BD000035
:101C40000064024009010020000402400A01002053
:101C5000000002400B010020103C014010B502487A
:101C600001F0E0F910BD0000D811002010B50248C5
:101C700001F0D8F910BD0000B81000200146087826
:101C800010381823B0FBF3F20848805CC865032ABB
:101C900005D908686FF30900001D886503E008682E
:101CA0006FF309008865886D70470000B63C010835
:101CB000014600208A6A8B69CBB932B1012A0DD066
:101CC000022A03D0032A10D10EE000BFCB6A03F032
:101CD0008073B3F1807F00D1012007E0CB6AB3F1BC
:101CE000C07F00D1012001E000E000BF34E08B693B
:101CF000B3F5005F1AD132B1012A07D0022A03D00E
:101D0000032A11D10AE000BF01200EE0CB6A03F0E4
:101D10008073B3F1807F00D1012006E0CB6AB3F17C
:101D2000C07F00D1012000E000BF15E032B1012AE0
:101D300005D0022A04D0032A0CD103E000BF00BF63
:101D4000012008E0CB6A03F08073B3F1807F00D1FB
:101D5000012000E000BF00BF7047704710B50120B0
:101D600001F02CFC10BD10B5082001F027FC10BDBF
:101D700010B5102001F022FC10BD10B5202001F09C
:101D80001DFC10BD72B600BFFEE7000010B50022BA
:101D900001B909E0012901D10A0205E0022901D1B6
:101DA0000A0201E04FF440720E4B1B6823F44073AB
:101DB0000C4C236023461B681343236023461B6897
:101DC00023F0F803236023461B68022444EAC0047E
:101DD0002343044C236023461B6843F48033236071
:101DE00010BD0000103C02401C48006800F4007068
:101DF000B0B11A48006820F400701849086000BFAC
:101E00000846006840F4006008600846006820F456
:101E10000060086000BF0846006840F40070086079
:101E20000E48006800F48060B0B10C48006820F4EF
:101E300080600A49086000BF0846006840F480508E
:101E400008600846006820F48050086000BF08461B
:101E5000006840F48060086070470000003C024069
:101E60000A4A126822F44072084B1A601A46126835
:101E700042F004021A601A4612684FF4803343EAB3
:101E800000231A43014B1A6070470000103C0240C7
:101E9000074A126822F44072054B1A601A4612680B
:101EA0001A601A46126842F001021A600170704707
:101EB000103C024010B50D49096821F440710B4CEB
:101EC00021602146096841F440712160214609687A
:101ED00041F001012160026000BF00BF00BFBFF3FD
:101EE0006F8F00BF00BF00BF436010BD103C0240B9
:101EF000084A126822F44072064B1A601A461268A9
:101F000042F480721A601A46126842F001021A60A6
:101F100001807047103C0240084A126822F4407267
:101F2000064B1A601A46126842F400721A601A468A
:101F3000126842F001021A6001607047103C0240D2
:101F40002348006800F0100040B12248C06940F00A
:101F500010002049C86110201D4908601C48006815
:101F600000F0200040B11B48C06940F0080019494A
:101F7000C8612020164908601548006800F040003C
:101F800040B11448C06940F004001249C8614020C3
:101F90000F4908600E48006800F0800040B10D480D
:101FA000C06940F002000B49C86180200849086000
:101FB0000748006800F0020040B10648C06940F0E0
:101FC00020000449C86102200149086070470000F0
:101FD0000C3C02408438002070B5044600250020E7
:101FE0001449C86101F000FC054609E0601C38B1E5
:101FF00024B101F0F9FB401BA04201D9032070BDC0
:102000000D48006800F480300028EFD10A480068CD
:1020100000F0010010B1012007490860064800687F
:1020200000F0F20018B1FFF78BFF0120E7E7002076
:10203000E5E70000843800200C3C024070B50A48F7
:102040000468001D0568001D0668344454B1082268
:102050000649204605F026FA042204491031284694
:1020600005F020FA70BD0000107AFF1F6A00002002
:1020700038B502460020009000BF92F83C000128CD
:1020800001D1022038BD012082F83C0000BF086861
:10209000092816D91068C0680C780A3C04EB44057E
:1020A0000724AC40A0431468E0600C780A3C04EBC1
:1020B00044048868A0401468E46820431468E06021
:1020C00013E0106800690C7804EB44050724AC4069
:1020D000A043146820610C7804EB44048868A04095
:1020E000146824692043146820614868072817D2BF
:1020F0001068406B0C79641E04EB84051F24AC400F
:10210000A04314686063088880B20C79641E04EBF5
:102110008404A0401468646B20431468606331E059
:1021200048680D2817D21068006B0C79E41F04EB87
:1021300084051F24AC40A04314682063088880B243
:102140000C79E41F04EB8404A0401468246B204342
:102150001468206316E01068C06A0C790D3C04EB2B
:1021600084051F24AC40A0431468E062088880B254
:102170000C790D3C04EB8404A0401468E46A20430D
:102180001468E062194B1A4C1068A04206D1086826
:10219000122803D1586840F480005860144C10682D
:1021A000A0421CD10868102802D00868112816D156
:1021B000586840F400005860086810280FD10D4896
:1021C00000680D4CB0FBF4F000EB80004000009084
:1021D00002E00098401E009000980028F9D100BF4E
:1021E000002082F83C0000BF00BF4BE70023014005
:1021F000002001409802002040420F00014608687C
:10220000C06C704770B5044600250CB9012070BD44
:102210001549A06A884200D000BF206C30B9204622
:1022200000F024F80020606484F83C00206C00F08A
:10223000100088B9206C20F4885040F0020020641F
:102240002046FEF74DFB00206064206C20F0020069
:1022500040F00100206400E0012500BF002084F868
:102260003C0000BF2846D2E70100000F10B586B041
:102270000446142101A8FEF724FA23492068884265
:102280000FD100BF002000902048006840F480700B
:102290001E4908600846006800F48070009000BF86
:1022A0002FE01B49206888422BD100BF00200090FE
:1022B0001648006840F480601449086008460068C9
:1022C00000F48060009000BF00BF00BF00200090BD
:1022D0000E481438006840F020000C49143908609A
:1022E0000846006800F02000009000BF00BF0815FD
:1022F0000190032002900020039001A9054801F0FD
:102300006BF906B010BD00000020014044380240C7
:10231000002201400014024070B504460D4600261C
:102320002068806800F48060B0F5806F11D120686B
:10233000806800F48070B0F5807F0AD1206C40F096
:102340002000206400BF002084F83C0000BF012072
:1023500070BD01F049FA064618E0681CB0B125B11D
:1023600001F042FA801BA84210D92068006800F0F2
:10237000020002280AD0206C40F00400206400BF54
:10238000002084F83C0000BF0320E1E720680068DB
:1023900000F002000228E0D16FF01200216808600E
:1023A000206C40F4007020642068806800F0405089
:1023B000B8B9207EA8B92068C06A00F4700020B1C6
:1023C0002068806800F4806058B9206C20F4807028
:1023D0002064206C00F4805018B9206C40F001009B
:1023E00020640020B4E7000008B5014600200090FA
:1023F00000BF91F83C00012801D1022008BD012056
:1024000081F83C0000BF0868806800F00100A0B9B6
:102410000868806840F001000B6898603F480068D9
:102420003F4BB0FBF3F000EB4000009002E000985F
:10243000401E009000980028F9D10868806800F0DC
:102440000100002860D0086C40F20163984340F41A
:10245000807008640868406800F4806028B1086CE7
:1024600020F4005040F480500864086C00F4805060
:10247000B0F5805F04D1486C20F00600486401E0AC
:102480000020486400BF002081F83C0000BF254ABE
:102490006FF022000B681860506800F01F0018BB36
:1024A000214B0868984213D0204B0868984204D109
:1024B000101D006800F01F0050B11D4B08689842C5
:1024C0002AD11848001D006800F01F00102823D2F0
:1024D0000868806800F04050F0B90868806840F0F3
:1024E00080400B68986017E00F4B0868984213D142
:1024F0000868806800F0405070B90868806840F053
:1025000080400B68986007E0086C40F01000086499
:10251000486C40F00100486400206FE798020020FA
:1025200040420F00002301400020014000210140F3
:102530000022014010B5024692F82030012B01D054
:10254000022B06D1106840690843146860610020BE
:1025500010BD506A40F4802050620120F8E7F0B5C9
:1025600004460D461E4694F8207020688368A868CB
:1025700000B900E000BF012F01D0022F7CD103F091
:10258000806030B903F0006018B903F08050002873
:1025900073D0C3F30161022905D9606A40F40000D9
:1025A00060620120F0BD012088403060A86860B9F9
:1025B000B5F800C0E86840EA4C5C206800F5C070DF
:1025C00000EB0110C0F800C00FE0D5E901C040EAFF
:1025D000CC00D5F80CC040EA0C00D4F800C00CF5D3
:1025E000C07C0CEB011CCCF80000D5F810C02068B2
:1025F00000F5C07000EB0110C0F804C0287D012870
:102600000ED1206800F5C07000EB0110406840F466
:10261000807C206800F5C07000EB0110C0F804C099
:10262000D079000692F806C040EA0C4092F805C046
:1026300040EA0C2C10794CEA000C206800F5C070C0
:1026400000EB0110C0F80CC0D078000692F802C070
:1026500040EA0C4092F801C040EA0C2092F800C019
:1026600040EA0C00D4F800C00CF5C07C0CEB011C57
:10267000CCF80800206801E016E00FE000F5C0701B
:1026800000EB0110006840F0010C206800F5C070FC
:1026900000EB0110C0F800C0002083E7606A40F43E
:1026A0000010606201207DE7606A40F48020606273
:1026B000012077E7F0B504460A46216894F82050D7
:1026C000012D01D0022D7ED1424901F5007108682B
:1026D00040F001000860086820F47C500860086839
:1026E000566A40EA06200860107D00F01F060120AF
:1026F00000FA06F3C8699843C861A1F50071D06972
:10270000C8B9D1F80C029843C1F80C02908880B285
:10271000968940EA064601F51070576940F837601F
:10272000108880B2168940EA064601F51070576994
:1027300000EBC7004660D069012819D1D1F80C021E
:102740001843C1F80C02908880B2168840EA064609
:1027500001F51070576940F83760908980B216898A
:1027600040EA064601F51070576900EBC700466065
:10277000906928B9D1F804029843C1F8040204E032
:10278000D1F804021843C1F80402106928B9D1F83D
:1027900014029843C1F8140204E0D1F8140218435B
:1027A000C1F81402106A012804D1D1F81C021843A0
:1027B000C1F81C02D1F8000220F00100C1F80002AB
:1027C0000020F0BDFFE7606A40F4802060620120D5
:1027D000F7E7000000640040704770B5044694F8C5
:1027E0002050012D01D0022D7DD151B92068C06843
:1027F00000F0030080B9606A40F4001060620120BC
:1028000070BD2068006900F0030028B9606A40F4D8
:10281000001060620120F3E7206800F5D87000EB3B
:102820000110006800F004009060906840B92068D2
:1028300000F5D87000EB01100068400D106007E053
:10284000206800F5D87000EB01100068C0085060E7
:10285000206800F5D87000EB0110006800F002005D
:10286000D060206800F5D87000EB0110406800F0DF
:102870000F001061206800F5D87000EB011040686F
:1028800000F47F40000A9061206800F5D87000EBEA
:1028900001104068000C5061206800F5D87000EB12
:1028A000011080681870206800F5D87000EB0110E6
:1028B000806800F47F40000A5870206800F5D870E6
:1028C00000EB0110806800F47F00000C9870206815
:1028D00000F5D87000EB01108068000ED8702068F9
:1028E00000F5D87000E02FE000EB0110C06818710F
:1028F000206800F5D87000EB0110C06800F47F403C
:10290000000A5871206800F5D87000EB0110C0680B
:1029100000F47F00000C9871206800F5D87000EB7F
:102920000110C068000ED87131B92068C06840F04D
:1029300020002668F06005E02068006940F0200073
:102940002668306100205BE7606A40F480206062A6
:10295000012055E72DE9F05F04460025206846690F
:102960002068D0F80490206887682068D0F80CA010
:102970002068D0F810B02068D0F8188006F0010068
:10298000002855D007F00100C0B1012021688860FF
:1029900007F0020018B1204600F013FB0EE007F02C
:1029A000040010B145F4006508E007F0080010B11C
:1029B00045F4805502E0204600F002FB07F48070E9
:1029C000C8B14FF480702168886007F4007018B1B6
:1029D000204600F0F8FA0EE007F4806010B145F4EC
:1029E000005508E007F4006010B145F4804502E0AE
:1029F000204600F0E7FA07F48030C8B14FF4803089
:102A00002168886007F4003018B1204600F0DDFA34
:102A10000EE007F4802010B145F4004508E007F40B
:102A2000002010B145F4803502E0204600F0CCFAD9
:102A300006F0080038B10AF0100020B145F4007526
:102A400010202168C86006F0040040B10AF00800B8
:102A500028B108202168C860204600F00DFA06F071
:102A6000020038B12068C06800F0030010B12046B1
:102A700000F004FA06F0400038B10BF0100020B16D
:102A800045F4806510202168086106F0200040B1FF
:102A90000BF0080028B1082021680861204600F0EA
:102AA0005DFA06F0100038B12068006900F00300FC
:102AB00010B1204600F053FA06F4003040B109F09E
:102AC000100028B1102021684860204600F048FA24
:102AD00006F4803040B109F0080028B108202168D0
:102AE0004860204600F072FA06F4004088B309F00E
:102AF000040078B306F4807020B108F0010008B13A
:102B000045F0010506F4007020B108F0020008B19C
:102B100045F0020506F4806020B108F0040008B119
:102B200045F0040506F40060A0B108F0700088B11B
:102B300008F07000402817D006DC10280BD02028A1
:102B40000CD0302819D10CE0502810D0602814D1B6
:102B500010E01DE019E045F008050FE045F0100514
:102B60000CE045F0200509E045F0400506E045F0A1
:102B7000800503E045F4807500E000BF00BF2068D9
:102B8000806920F070002168886104202168486015
:102B90002DB1606A284360622046FFF71DFEBDE844
:102BA000F09F70B504460CB9012070BD94F8200068
:102BB00010B9204600F0B0F82068006840F001002D
:102BC0002168086000F010FE05460DE000F00CFEE4
:102BD000401B0A2808D9606A40F400306062052072
:102BE00084F820000120E0E72068406800F0010040
:102BF0000028EBD02068006820F0020021680860FF
:102C000000F0F2FD05460DE000F0EEFD401B0A2845
:102C100008D9606A40F400306062052084F8200022
:102C20000120C2E72068406800F002000028EBD1D4
:102C3000207E012806D12068006840F080002168CD
:102C4000086005E02068006820F0800021680860C6
:102C5000607E012806D12068006840F040002168AD
:102C6000086005E02068006820F0400021680860E6
:102C7000A07E012806D12068006840F0200021686D
:102C8000086005E02068006820F0200021680860E6
:102C9000E07E012806D12068006820F0100021683D
:102CA000086005E02068006840F0100021680860B6
:102CB000207F012806D12068006840F008002168C4
:102CC000086005E02068006820F0080021680860BE
:102CD000607F012806D12068006840F00400216868
:102CE000086005E02068006820F0040021680860A2
:102CF000D4E9020108432169084361690843616816
:102D0000491E08432168C86100206062012084F8E0
:102D10002000002049E7000010B586B004461421C9
:102D200001A8FDF7CEFC4E492068884241D14D48AC
:102D30000068401C4B4908600846006801280FD114
:102D400000BF002000904848006840F000704649ED
:102D500008600846006800F00070009000BF00BFE7
:102D600000BF0020009040481038006840F0080084
:102D70003D49103908600846006800F008000090DE
:102D800000BF00BF032001900220029000200390AA
:102D9000032004900920059001A9344800F01CFC90
:102DA00000220621142001F0BDF9142001F0AAF937
:102DB00054E02F492068884250D100BF0020009085
:102DC0002948006840F0806027490860084600688C
:102DD00000F08060009000BF00BF22480068401CE7
:102DE000204908600846006801280FD100BF002074
:102DF00000901D48006840F000701B4908600846BC
:102E0000006800F00070009000BF00BF00BF00200D
:102E1000009015481038006840F00200124910393F
:102E200008600846006800F00200009000BF00BF84
:102E30006020019002200290002003900320049063
:102E40000920059001A90B4800F0C6FB00220621CD
:102E5000402001F067F9402001F054F906B010BDA0
:102E6000006400402800002040380240000C02406E
:102E70000068004000040240704700001CB5044692
:102E80006B46334A00212046FFF7A7FC3048006814
:102E9000A0F20120072858D2DFE800F00405060759
:102EA00008090A0000BF00BF00BF00BF00BF00BF8D
:102EB00027480078401E274908700846007800EB34
:102EC0008000254931F8100000B22249097801EB51
:102ED0008101214A02EB410108819DF801009DF822
:102EE000001040EA01201B49097801EB810122F81A
:102EF00011009DF803009DF8021040EA012000B285
:102F00001449097801EB810102EB410148809DF8E9
:102F100005009DF8041040EA012000B20D4909782F
:102F200001EB810102EB410188809DF8060009490F
:102F3000097801EB810102EB4101887105490978AB
:102F4000491CC8B20BF0D2F800E000BF00BF1CBDA6
:102F5000A4330020E80100202C3300207047704784
:102F6000704770B5044694F82000012822D1022051
:102F700084F820002068006820F0010021680860C3
:102F800000F032FC05460DE000F02EFC401B0A2844
:102F900008D9606A40F400306062052084F820009F
:102FA000012070BD2068406800F001000028EBD1CE
:102FB0006062F6E7606A40F4002060620120F0E79A
:102FC000704770477047704770477047704710B53B
:102FD00004460CB9012010BD607920B90020207191
:102FE000204600F005F8012060710020F3E70000A2
:102FF00008B50A4A016891420FD100BF0021009133
:103000000749096841F48051054A11601146096871
:1030100001F48051009100BF00BF08BD00300240A4
:1030200030380240F8B50446002000908C48006813
:103030004FF41651B0FBF1F7A56D2E6894F85C10B3
:1030400008208840304098B12068006800F00400F3
:1030500070B12068006820F004002168086094F8CE
:103060005C1008208840A860606D40F00100606539
:1030700094F85C1001208840304068B120684069B5
:1030800000F0800040B194F85C1001208840A860F6
:10309000606D40F00200606594F85C100420884088
:1030A000304068B12068006800F0020040B194F838
:1030B0005C1004208840A860606D40F004006065EA
:1030C00094F85C1010208840304078B32068006885
:1030D00000F0080050B394F85C1010208840A860FD
:1030E0002068006800F4802080B12068006800F447
:1030F000002028B9206CC8B12046216C884715E013
:10310000A06C98B12046A16C88470FE02068006849
:1031100000F4807028B92068006820F00800216859
:103120000860206C10B12046216C884794F85C1030
:10313000202088403040002865D02068006800F0DA
:10314000100000285FD094F85C1020208840A86010
:1031500094F83500052828D12068006820F0160072
:10316000216808602068406920F08000216848617B
:10317000206C08B9A06C28B12068006820F0080015
:103180002168086094F85C103F208840A860012006
:1031900084F8350000BF002084F8340000BF206DA3
:1031A00010B12046216D8847F8BD2068006800F402
:1031B000802080B12068006800F4002028B9606C8D
:1031C00010B12046616C88471DE0E06BD8B1204605
:1031D000E16B884717E02068006800F4807068B9E8
:1031E0002068006820F0100021680860012084F841
:1031F000350000BF002084F8340000BFE06B10B140
:103200002046E16B8847606D38B3606D00F00100C7
:10321000F0B1052084F835002068006820F0010036
:103220002168086000BF0098401C0090B84200D997
:1032300005E02068006800F001000028F3D100BF1D
:10324000012084F8350000BF002084F8340000BF5E
:10325000E06C10B12046E16C884700BFA4E7000095
:10326000980200202DE9F0410446002500F0BCFA48
:10327000074614B90120BDE8F081606A00B100BFC3
:10328000022084F8350000BF002084F8340000BF1D
:103290002068006820F00100216808600AE000F062
:1032A000A3FAC01B052805D920206065032084F8F7
:1032B0003500E0E72068006800F001000028EED14A
:1032C0002068056821480540D4E901010843E16808
:1032D00008432169084361690843A1690843E1691A
:1032E0000843216A08430543606A042803D1D4E9EE
:1032F0000B0108430543206805602068456925F0F7
:103300000705606A0543606A04280DD1A06A054379
:10331000E06A48B12046FEF7CBFC28B1402060654A
:10332000012084F83500A6E7206845612046FEF7B5
:10333000A5FC064694F85C103F208840B060002051
:103340006065012084F83500002094E73F8010F08C
:1033500070B5044600F048FA06462546681C10B1D0
:1033600004480078054400BF00F03EFA801BA842E4
:10337000FAD370BD940200202DE9F04104460E46B8
:103380000127002500BF2548007E012802D1022028
:10339000BDE8F08101202149087600BF4CF2503091
:1033A000FEF71AFE0746002F31D1401E306020681C
:1033B00001280FD1207C6168FEF752FD4CF250309D
:1033C000FEF70AFE07461648006820F0040014497C
:1033D00008601AE0A56812E0217C2846FEF7D6FCBA
:1033E0004CF25030FEF7F8FD07460D48006820F01B
:1033F000FA000B4908600FB1356005E06D1CD4E997
:1034000002100844A842E7D800BFFEF7EDFC00BF59
:1034100000200249087600BF3846B9E7843800200A
:10342000103C02400348006840F000400149086039
:1034300000207047103C02402DE9F04106460F463F
:1034400014461D464FF0010800BF1F48007E0128AA
:1034500002D10220BDE8F08101201B49087600BF9F
:103460004CF25030FEF7B8FD8046B8F1000F23D182
:1034700026B9E1B23846FEF70BFD12E0012E04D169
:10348000A1B23846FEF734FD0BE0022E04D12146EE
:103490003846FEF741FD04E022462B463846FEF74B
:1034A00009FD4CF25030FEF797FD80460748006852
:1034B00020F001000549086000BF0020024908769D
:1034C00000BF4046C6E7000084380020103C0240A0
:1034D00000200949096801F0004159B10749064A2D
:1034E0000C3A1160064911600349096801F0004176
:1034F00001B1012070470000103C024023016745E4
:10350000AB89EFCD10B50446102C14D109200AF078
:10351000EDFD2248007840F0010020490870204865
:10352000007840F001001E4908701E480078A0B3E2
:103530000CF02CFA31E0202C0ED108200AF0D6FD38
:103540001948007840F001001749087015480078C4
:1035500018B30CF01BFA20E0082C09D10A200AF05D
:10356000C5FD1248007840F001001049087014E0D1
:10357000012C12D10FF016FA01280ED00C490D487B
:1035800000680EF0EBFB0A48006830B120070A49DA
:103590000860BFF34F8FBFF36F8F10BD0A0100208B
:1035A0000B0100200D010020090100200C0100206A
:1035B00080010020E400002004ED00E010B5044686
:1035C00004480068204020B1024804602046FFF70C
:1035D00099FF10BD143C0140F8B502460B4600258A
:1035E000002400200021D6E0012606FA01F51E681D
:1035F00006EA0504AC4274D11E7906F00306012EDA
:1036000004D01E7906F00306022E13D190684F00F5
:103610000326BE40B0434F00DE68BE40304390609A
:10362000506801268E40B0431E79C6F300168E40C6
:10363000304350601E7906F00306032E09D0D0688F
:103640004F000326BE40B0434F009E68BE4030434B
:10365000D0601E7906F00306022E13D1CF0802F1C6
:10366000200656F827004E07F70E0F26BE40B0433F
:103670004F07FF0E1E69BE403043CF0802F12006FF
:1036800046F8270010684F000326BE40B0431E795D
:1036900006F003064F00BE40304310605E6806F43B
:1036A0004036002E76D000BF002600963C4E36688D
:1036B00046F480463A4F3E603E46366806F4804601
:1036C000009600BF00BF374E8F0856F827008E07C0
:1036D000370F0F26BE40B043334EB24202D1002610
:1036E00024E057E0314EB24201D101261EE0304EB7
:1036F000B24201D1022619E02E4EB24201D1032678
:1037000014E02D4EB24201D104260FE02B4EB242FE
:1037100001D105260AE02A4EB24201D1062605E073
:10372000284EB24201D1072600E008268F073F0F3E
:10373000BE4030431B4E8F0846F82700224E3068AB
:10374000A0435E6806F4801606B120431E4E30602A
:10375000361D3068A0435E6806F4001606B12043AB
:10376000194E361D3060184E361F3068A0435E6813
:1037700006F4003606B12043134E361F3060361F64
:103780003068A0435E6806F4803606B120430E4ED2
:10379000083E3060491C1029FFF426AFF8BD000038
:1037A0004438024008380140000002400004024052
:1037B00000080240000C02400010024000140240C9
:1037C00000180240001C0240083C014002461369F8
:1037D0000B400BB1012000E0002070470AB181616D
:1037E00001E00B04836170470148006870470000E6
:1037F0008C02002070B504460CB9012070BD94F80D
:103800003D0028B9002084F83C00204600F006FB6B
:10381000242084F83D002068006820F00100216821
:1038200008602068006840F4004021680860206853
:10383000006820F400402168086001F049FD054659
:103840005C496068884206D85B48854201D2012005
:1038500007E0002005E05948854201D2012000E040
:103860000020012800D1C9E75548B5FBF0F62068D3
:10387000406820F03F003043216848604D4960684F
:10388000884201D8701C07E04FF4967070434FF4E3
:103890007A71B0FBF1F0401C2168096A21F03F0108
:1038A00008432168086243496068884214D8681E4A
:1038B00061684900B0FBF1F0401CC0F30B00042824
:1038C00001D204203DE0681E61684900B0FBF1F0C0
:1038D000401CC0F30B0034E0A06838B9681E616872
:1038E00001EB4101B0FBF1F0401C0AE0681E616889
:1038F00001EBC10202EB0111B0FBF1F0401C40F4FE
:103900008040C0F30B0008B901201AE0A06848B954
:10391000681E616801EB4101B0FBF1F0401CC0F38F
:103920000B000CE0681E616801EBC10202EB0111A3
:10393000B0FBF1F0401CC0F30B0040F4804040F4B9
:1039400000402168C9694CF6FF7291430843216821
:10395000C861D4E9070108432168096821F0C00162
:10396000084321680860D4E9031008432168896886
:1039700048F2FF329143084321688860D4E9050189
:1039800008432168C96821F0FF0108432168C86025
:103990002068006840F00100216808600020206471
:1039A000202084F83D000020206384F83E0000BF02
:1039B00024E70000A086010080841E0000093D006D
:1039C00040420F002DE9FC5F04460F4690469946A1
:1039D000DDE90CAB0E9EFFF707FF054694F83D00AE
:1039E000202870D119230122B0492046009503F008
:1039F00061FA10B10220BDE8FC9F00BF94F83C00C2
:103A0000012801D10220F6E7012084F83C0000BF24
:103A10002068006800F0010028B92068006840F0C4
:103A20000100216808602068006820F400602168B7
:103A30000860222084F83D00402084F83E000020E9
:103A40002064C4F824A0A4F82AB0608D208598488A
:103A5000E0624B46424639462046CDE9006503F018
:103A6000DBF808B10120C6E7208D88B900BF00202F
:103A7000019020684069019020688069019000BF32
:103A800000BF2068006840F400702168086040E0D2
:103A9000208D012818D12068006820F480602168FA
:103AA000086000BF002001902068406901902068F4
:103AB0008069019000BF00BF2068006840F400707A
:103AC0002168086025E0EFE0208D022816D12068EB
:103AD000006820F48060216808602068006840F475
:103AE00000602168086000BF0020019020684069E4
:103AF000019020688069019000BF0AE000BF0020AB
:103B0000019020684069019020688069019000BFA1
:103B100000BFBAE0208D03287ED8208D012815D162
:103B20002A463146204603F06AFA08B1012062E7CE
:103B300020680069616A0870606A401C6062208DBC
:103B4000401E2085608D401E60859EE0208D0228ED
:103B50002AD13346002257492046009503F0AAF99E
:103B600008B1012047E72068006840F40070216830
:103B7000086020680069616A0870606A401C6062C1
:103B8000208D401E2085608D401E60852068006964
:103B9000616A0870606A401C6062208D401E20854A
:103BA000608D401E608570E033460022414920460A
:103BB000009503F07FF908B101201CE72068006838
:103BC00020F480602168086020680069616A0870DC
:103BD000606A401C6062208D401E2085608D401E02
:103BE00060853346002233492046009503F062F990
:103BF00008B10120FFE62068006840F400702168E9
:103C0000086020680069616A0870606A401C606230
:103C1000208D401E208500E010E0608D401E6085F4
:103C200020680069616A0870606A401C6062208DCB
:103C3000401E2085608D401E608526E02A46314664
:103C4000204603F0DCF908B10120D4E620680069C1
:103C5000616A0870606A401C6062208D401E208589
:103C6000608D401E608520684069C0F3800060B1AF
:103C700020680069616A0870606A401C6062208D7B
:103C8000401E2085608D401E6085208D00287FF4B9
:103C900041AF202084F83D00002084F83E0000BFA2
:103CA00084F83C0000BFA6E60220A4E60200100053
:103CB0000000FFFF040001002DE9FC5F04460F46F1
:103CC00090469946DDE90CAB0E9EFFF78DFD05464B
:103CD00094F83D0020287DD1192301224D4920462A
:103CE000009503F0E7F810B10220BDE8FC9F00BF8B
:103CF00094F83C00012801D10220F6E7012084F865
:103D00003C0000BF2068006800F0010028B920686E
:103D1000006840F00100216808602068006820F415
:103D2000006021680860212084F83D00402084F86C
:103D30003E0000202064C4F824A0A4F82AB0608DBE
:103D400020853548E0624B46424639462046CDE95B
:103D5000006503F011F808B10120C6E731E02A46FA
:103D60003146204603F08BF950B1206C042805D170
:103D70002068006840F40070216808600120B4E702
:103D8000606A007821680861606A401C6062208D6A
:103D9000401E2085608D401E608520684069C0F30C
:103DA000800070B1208D60B1606A00782168086180
:103DB000606A401C6062208D401E2085608D401E20
:103DC0006085208D0028CAD12A463146204603F05E
:103DD00043F800E01CE050B1206C042805D12068B5
:103DE000006840F400702168086001207DE72068C9
:103DF000006840F4007021680860202084F83D00CD
:103E0000002084F83E0000BF84F83C0000BF6CE74F
:103E100002206AE7020010000000FFFF10B586B024
:103E20000446142101A8FCF74CFC6F492068884225
:103E300030D100BF002000906C48006840F00200C4
:103E40006A4908600846006800F00200009000BF60
:103E500000BF4FF4407001901220029001200390A7
:103E6000032004900420059001A96148FFF7B4FBEA
:103E700000BF002000905D481030006840F4001042
:103E80005A49103108600846006800F4001000909C
:103E900000BFA6E057492068884250D100BF0020EB
:103EA00000905248006840F02000504908600846E1
:103EB000006800F02000009000BF00BF03200190C8
:103EC000122002900120039003200490042005900A
:103ED00001A94948FFF780FB00BF0020009043483C
:103EE0001030006840F480004049103108600846F6
:103EF000006800F48000009000BF00BF3F484049C8
:103F000008604FF06060486040213D4881600021BA
:103F1000C1604FF480610161002141618161C16133
:103F20004FF40031016200214162FFF79BF908B1B3
:103F3000FDF728FF00BF32486063846351E03149D8
:103F4000206888424DD100BF0020009027480068BB
:103F500040F00400254908600846006800F00400AD
:103F6000009000BF00BF00BF00200090084600681E
:103F700040F0010008600846006800F00100009071
:103F800000BF00BF4815019012200290012003904D
:103F9000032004900420059001A91B48FFF71CFB97
:103FA0004FF48070019012200290012003900320B2
:103FB00004900420059001A91448FFF70DFB00BFF1
:103FC0000020009009481030006840F400000749C4
:103FD000103108600846006800F40000009000BF3F
:103FE00000BF06B010BD0000005400403038024051
:103FF000000402400058004000140240B860024033
:104000003C0C0020005C0040000802400000024020
:10401000034800680349097808440149086070476B
:104020008C0200209402002010B50D48006840F476
:1040300000700B4908600846006840F48060086022
:104040000846006840F480700860032000F0A8F87B
:104050000F2000F007F800F02BF8002010BD000042
:10406000003C024070B504460E4800784FF47A7167
:10407000B1FBF0F00C490968B1FBF0F5284601F0FE
:1040800010FF08B1012070BD102C07D2002221467C
:10409000501E00F047F80548046001E00120F2E7F7
:1040A0000020F0E7940200209802002090020020F7
:1040B00008B500BF002000901148006840F480401F
:1040C0000F4908600846006800F48040009000BF77
:1040D00000BF00BF00200090081F006840F0805023
:1040E000091F08600846006800F08050009000BF7B
:1040F00000BF00220F21901E00F014F808BD000040
:104100004438024001460846002809DB00F01F033E
:1041100001229A4043099B0003F1E023C3F80021E8
:1041200000BF70472DE9F05F80460D461646002718
:1041300008F004F8074639462A46334601F00700DE
:10414000C0F1070ABAF1040F02D94FF0040A01E0E6
:10415000C0F1070AD14600F1040ABAF1070F02D2F2
:104160004FF0000A01E0A0F1030AD4464FF0010A23
:104170000AFA09FAAAF1010A0AEA020A0AFA0CFA88
:104180004FF0010B0BFA0CFBABF1010B0BEA030B2D
:104190004AEA0B042146404607F0D8FFBDE8F09FED
:1041A00000BF00F00702064B19684FF6FF031940E5
:1041B000044B0B4343EA0221014B196000BF7047D7
:1041C0000CED00E00000FA057047024610684162FD
:1041D00000207047F0B5034615461868446A21B9B7
:1041E00044EA05401E68B06219E01868806A04EB72
:1041F0001044002208E0186800F5827050F8220090
:1042000004EB1044501CC2B2481E9042F3D844EA5A
:104210000547186800F582704E1E40F82670002091
:10422000F0BD10B50446D4F8080506F0ECF910BD51
:1042300070B504460D4605EBC50304F13C0101EBE6
:1042400083010A692946D4F8080506F0D7F870BD3D
:1042500070B504460D4605EBC50304F51F7101EB6F
:1042600083010A692946D4F8080506F04BF970BDA8
:1042700010B50446D4F8080506F0C8F910BD2DE9BC
:10428000F04104460D4605F08000802808D105F075
:104290000F0000EBC00104F13C0000EB810607E0D9
:1042A00005F00F0000EBC00104F51F7000EB810664
:1042B0003146206807F09CFC07463846BDE8F0818F
:1042C00070B504460E4606F0800080280AD106F03C
:1042D0000F0000EBC00104F13C0000EB8105012060
:1042E000687009E006F00F0000EBC00104F51F70D4
:1042F00000EB81050020687006F00F00287000BFF9
:1043000094F8BC04012801D1022070BD012084F87A
:10431000BC0400BF2946206806F04AFF00BF002009
:1043200084F8BC0400BF00BFEFE770B504460E463A
:1043300006F00F006168884201D9012070BD06F0C7
:10434000800080280AD106F00F0000EBC00104F1C4
:104350003C0000EB81050120687009E006F00F00C9
:1043600000EBC00104F51F7000EB810500206870B0
:104370000020A87006F00F00287000BF94F8BC045D
:10438000012801D10220D9E7012084F8BC0400BF34
:104390002946206807F0F4F900BF002084F8BC0427
:1043A00000BF00BFCAE7024601F00F0000EBC003E8
:1043B00002F51F7000EB8300006A70472DE9F0479B
:1043C00005460E4690461F464FF0000906F0800055
:1043D00080280AD106F00F0000EBC00105F13C0077
:1043E00000EB81040120607009E006F00F0000EB93
:1043F000C00105F51F7000EB81040020607006F01D
:104400000F002070C4F80C802771607808B1207804
:104410002081022F01D10020607100BF95F8BC04FB
:10442000012802D10220BDE8F087012085F8BC04F4
:1044300000BF2146286806F0D1FD00BF002085F8A6
:10444000BC0400BF4846EEE72DE9F04104460E46A5
:104450001746984606F00F0000EBC00104F51F70E8
:1044600000EB81052F61C5F8188000202862687074
:1044700006F00F0028702069012800D16F6106F056
:104480000F0028B9227C2946206807F053F804E081
:10449000227C2946206807F007FA0020BDE8F08159
:1044A00070B504460D4605F00F006168884201D9D9
:1044B000012070BD05F0800080280AD105F00F00B2
:1044C00000EBC00104F13C0000EB8106012070709C
:1044D00007E005EBC50104F51F7000EB8106002025
:1044E00070700120B07005F00F00307000BF94F8BC
:1044F000BC04012801D10220DBE7012084F8BC04C0
:1045000000BF3146206807F082F905F00F0028B996
:10451000217C04F2C442206807F0FAF800BF0020B2
:1045200084F8BC0400BF00BFC3E72DE9F041044696
:104530000E461746984606F00F0000EBC00104F146
:104540003C0000EB81052F61C5F81880002028622F
:104550000120687006F00F0028702069012800D142
:104560006F6106F00F0028B9227C2946206806F00A
:10457000E1FF04E0227C2946206807F095F900203D
:10458000BDE8F0812DE9FE4F0446D4F800B05E4648
:10459000206807F014FC002874D1206807F04EFC56
:1045A00008B9BDE8FE8F40F608008059C0F30D2021
:1045B000C4F8FC04206807F041FC00F00200022867
:1045C00005D12068406900F0020021684861206838
:1045D00007F034FC00F01000102845D120688069F5
:1045E00020F0100021688861DBF8209009F00F00AE
:1045F00000EBC00104F51F7000EB810AC9F34340D2
:1046000002281AD147F6F07009EA000030B3C9F366
:104610000A125846DAF8101007F015FCC9F30A110F
:10462000DAF810000844CAF81000C9F30A11DAF8E1
:1046300020000844CAF8200010E0C9F343400628CF
:104640000CD1082204F2C441584607F0FCFBC9F320
:104650000A11DAF820000844CAF8200020688069AE
:1046600040F0100021688861206807F0E7FB00F443
:104670000020B0F5002F7BD10025206807F0AEFBAD
:10468000029072E0E1E2029800F00100002868D098
:10469000E9B2206807F0C5FB804608F0010048B188
:1046A000012106F5306000EB451081602946204667
:1046B00003F0A2FD08F00800082809D1082106F53A
:1046C000306000EB451081602946204603F062FD12
:1046D00008F01000102805D1102106F5306000EB1D
:1046E0004510816008F00200022824D1DBF8140094
:1046F00000F08000802807D140F60400805940F483
:10470000806140F60400815105EBC50104F51F707E
:1047100000EB810A9AF80300012806D100208AF8EC
:104720000300E9B2204600F09BFA022106F5306052
:1047300000EB4510816008F02000202805D12021E1
:1047400006F5306000EB4510816008F40050B0F5CC
:10475000005F06D14FF4005106F5306000EB4510C4
:1047600081606D1C029840080290029800288AD14E
:10477000206807F063FB00F48020B0F5802F7DD126
:10478000206807F021FB029000259AE0029800F0D3
:104790000100002873D0E9B2206807F029FB8046A9
:1047A00008F00100F0B305F00F01012088400190EE
:1047B00040F634008159019821EA000040F63401A6
:1047C0008851012106F5106000EB451081602069D9
:1047D000012824D105EBC50104F13C0000EB810068
:1047E00005EBC502016904F13C0000EB8200C068E2
:1047F000014405EBC50204F13C0000EB82000161BD
:104800006DB905EBC50104F13C0000EB8100806946
:1048100028B904F2C4420121206806F079FFE9B208
:10482000204600E001E0FFF703FD08F0080008283B
:1048300005D1082106F5106000EB4510816008F0F5
:104840001000102805D1102106F5106000EB45106E
:10485000816008F04000402805D1402106F5106035
:1048600000EB4510816008F0020002281DD12946A6
:10487000584607F065FA05EBC50101E025E01CE0AC
:1048800004F13C0000EB810A9AF80300012806D1EC
:1048900000208AF80300E9B2204600F0D8F902218E
:1048A00006F5106000EB4510816008F0800080285C
:1048B00003D12946204603F041FD6D1C02984008B3
:1048C0000290029800287FF461AF206807F0B6FAE2
:1048D00000F00040B0F1004F1CD140F604008059B8
:1048E00020F0010140F60400815194F8F4040128FD
:1048F00007D1002084F8F40400212046FFF764FC6F
:1049000002E0204600F0D4FA2068406900F0004040
:1049100021684861206807F091FA00F40060B0F562
:10492000006F0ED140F60800805900F0010010B170
:10493000204600F015FB2068406900F40060216803
:104940004861206807F07AFA00F48050B0F5805F83
:104950007ED140F60400805920F0010140F60400A9
:1049600081511021206807F0EBF9002732E04FF663
:104970007F3106F5106000EB4710816006F510608E
:1049800000EB4710006820F4001106F5106000EB02
:10499000471001604FF67F3106F5306000EB47109D
:1049A000816006F5306000EB4710006820F40011CC
:1049B00006F5306000EB4710016006F5306000EB53
:1049C0004710006840F0006106F5306000EB4710CA
:1049D00001607F1C6068B842C9D840F61C0080594D
:1049E00040F0011140F61C008151206B70B1D6F8E7
:1049F000840840F00B01C6F8841840F64400805942
:104A000040F00B0140F6440081510FE040F61400E5
:104A1000805942F22B01084340F614018851081FC7
:104A2000805940F00B014FF401608151D6F8000825
:104A300020F4FE60C6F80008217C04F2C44220681D
:104A400006F066FE2068406900F48050216800E0AE
:104A500000E04861206807F0F1F900F40050B0F57B
:104A6000005F17D1206806F021FB206807F094F959
:104A7000E06000F027FC0090227B2068009907F09E
:104A800065FA204600F0FCF92068406900F4005007
:104A900021684861206807F0D1F900F00800082873
:104AA00008D1204600F00BFA2068406900F00800A9
:104AB00021684861206807F0C1F900F08000802873
:104AC00018D1DBF8180020F08000CBF81800012581
:104AD0000DE005EBC50104F51F7000EB8100C07807
:104AE000012803D1E9B22046FFF7C9FB6D1C6068BD
:104AF000A842EED8206807F0A1F900F48010B0F5C4
:104B0000801F2DD1012522E006F5106000EB451035
:104B1000D0F8009005EBC50104F13C0000EB8100EA
:104B20000079012812D109F00040B0F1004F0DD1F9
:104B3000012105EBC50204F13C0000EB8200C170CD
:104B4000E8B240F080012046FFF799FB6D1C6068D9
:104B5000A842D9D82068406900F4801021684861D3
:104B6000206807F06BF900F40010B0F5001F44D185
:104B7000012538E006F5306000EB4510D0F80090D4
:104B800005EBC50104F51F7000EB810000790128D9
:104B900028D109F00040B0F1004F23D109F4803052
:104BA00094F8FC1401F0010188421BD1012105EBAE
:104BB000C50204F51F7000EB8200C170DBF818001D
:104BC00040F08000CBF81800DBF8140000F0800003
:104BD00040B940F60400805940F4007140F60400EA
:104BE000815103E06D1C6068A842C3D800BF2068F3
:104BF000406900F4001021684861206807F01EF940
:104C000000F08040B0F1804F08D12046FFF709FB4B
:104C10002068406900F0804021684861206807F002
:104C20000DF900F0040004280FD12068D0F804909A
:104C300009F00400042802D12046FFF719FB206880
:104C4000406840EA09002168486000BFA9E470B5E7
:104C500004460D462946D4F8080505F043FD70BD0D
:104C600070B504460D462946D4F8080505F05EFDEA
:104C700070BD70B58AB0044614B901200AB070BD89
:104C8000266894F8BD0428B9002084F8BC042046A6
:104C900000F0A2F8032084F8BD04F06B00F48070EB
:104CA00008B900212161206806F03CFC282204F1AB
:104CB00010016846FBF7A9FC94E80F0006F00AFA19
:104CC00020B1022084F8BD040120D7E7002120682C
:104CD00007F0E9F8002531E0012105EBC50204F1F8
:104CE0003C0000EB8200417005EBC50104F13C0083
:104CF00000F8215005EBC50100EB81000581002182
:104D000005EBC50204F13C0000EB8200017105EBEC
:104D1000C50204F13C0000EB8200C16005EBC50256
:104D200004F13C0000EB8200016105EBC50204F1D7
:104D30003C0000EB82008161681CC5B26068A8423B
:104D4000CAD800252AE0002105EBC50204F51F7032
:104D500000EB8200417005EBC50104F51F7000F8FF
:104D60002150002105EBC50200EB8200017105EB2B
:104D7000C50204F51F7000EB8200C16005EBC5029F
:104D800004F51F7000EB8200016105EBC50204F51C
:104D90001F7000EB82008161681CC5B26068A84288
:104DA000D1D8282204F110016846FBF72EFC94E8C4
:104DB0000F0006F0C7FA20B1022084F8BD040120DC
:104DC0005CE7002084F83800012084F8BD042068E6
:104DD00006F0A6FA002051E710B586B0044614216B
:104DE00001A8FBF76EFC2068B0F1A04F42D100BFD4
:104DF000002000902048006840F001001E49086033
:104E00000846006800F00100009000BF00BF4FF4AA
:104E1000C0500190022002900020039003200490D3
:104E20000A20059001A91548FEF7D6FB00BF1248DD
:104E3000001D006840F080000F49091D086000BF98
:104E4000002000900C481430006840F480400A496B
:104E5000143108600846006800F48040009000BFEC
:104E600000BF00BF002205214320FFF75BF943206C
:104E7000FFF748F906B010BD30380240000002408C
:104E800070B504460125E06808B9002506E0E06831
:104E9000022801D1012501E0FCF774FF2946D4F86E
:104EA000080505F0ECFCD4F8080505F093FC70BD8E
:104EB00010B50446D4F8080505F0C2FC10BD10B5C5
:104EC0000446D4F8080505F0C6FC10BD70B50446CC
:104ED0000D4600BF94F8BC04012801D1022070BD2A
:104EE000012084F8BC0400BF84F8385029462068AB
:104EF00007F00DF800BF002084F8BC0400BF00BF1D
:104F0000EDE710B5044604F2C441D4F8080505F0F5
:104F1000CDFC10BD70B50446256800BF94F8BC04F4
:104F2000012801D1022070BD012084F8BC0400BF1B
:104F3000A06A012806D1A069012803D0A86B40F41B
:104F40008030A863206806F0C9FE206806F0D6F914
:104F500000BF002084F8BC0400BF00BFE3E70000EE
:104F600010B50446D4F8080505F0FDFC2068D0F81B
:104F7000000E40F001002168C1F8000E206A28B13F
:104F80000348006840F006000149086010BD0000B9
:104F900010ED00E0F8B5044600250026207800F06A
:104FA000010020B9207800F0040004282FD100204F
:104FB0005B498866FEF718FC054606E0FEF714FC20
:104FC000401B022801D90320F8BD56480068C0F3F1
:104FD000C0600028F2D160688101207A41EA007047
:104FE00050498431086001204D498866FEF7FCFB7A
:104FF000054606E0FEF7F8FB401B022801D9032016
:10500000E2E748480068C0F3C0600028F2D020788A
:1050100000F0020002287DD100BF0020009041482E
:105020004030006840F080503E49403108600846FA
:10503000006800F08050009000BF00BF3A48006850
:1050400040F4807038490860FEF7CEFB054606E064
:10505000FEF7CAFB401B022801D90320B4E73248FF
:10506000006800F480700028F2D02E48703000688C
:1050700000F440764EB3A08900F44070B04224D0D2
:1050800028487030006820F44076012027490860E5
:1050900000200860234870300660006800F00100BE
:1050A00098B1FEF7A1FB054608E0FEF79DFB401B0B
:1050B00041F28831884201D9032085E719487030D0
:1050C0000068C0F340000028EFD000BFA08900F4C2
:1050D0004070B0F5407F0CD112480830006820F4D1
:1050E000F810134AE168114008430E49083108607E
:1050F00007E00C480830006820F4F810094908312E
:105100000860084870300068A189C1F30B010843AA
:10511000044900E002E07031086000BF002053E75E
:10512000000047420038024000700040400E4742F5
:10513000FFFCFF0F70B504460D460CB9012070BD91
:105140005848006800F00700A84209D255490D7080
:105150000846006800F00700A84201D00120EEE7F1
:10516000207800F0020002281DD1207800F0040011
:10517000042805D14C48006840F4E0504A490860D2
:10518000207800F00800082805D14748006840F45E
:105190006040454908604448006820F0F000A1687C
:1051A000084341490860207800F00100A8B3606816
:1051B000012807D13C4808380068C0F34040B8B91E
:1051C0000120BCE76068022802D06068032807D18C
:1051D000354808380068C0F3406048B90120AEE7A0
:1051E000314808380068C0F3400008B90120A6E73C
:1051F0002D48006820F00300616808432A490860D0
:10520000FEF7F2FA064609E0FEF7EEFA801B41F2DD
:105210008831884202D9032091E707E022480068DC
:1052200000F00C006168B0EB810FEDD11D48006803
:1052300000F00700A84209D91A490D700846006815
:1052400000F00700A84201D0012078E7207800F0A4
:105250000400042807D11448006820F4E050E168F5
:10526000084311490860207800F00800082808D198
:105270000D48006820F46040216940EAC1000A49F5
:10528000086000F045F808490968C1F30311074AAE
:10529000515CC8400649086006480068FEF7E2FE17
:1052A00000204CE7003C024008380240BE3C0108A8
:1052B000980200209002002001200149C864704734
:1052C0000000474201480068704700009802002033
:1052D00000B5FFF7F7FF04490968C1F38221034ACB
:1052E000515CC84000BD000008380240CE3C0108B7
:1052F00000B5FFF7E7FF04490968C1F34231034AEB
:10530000515CC84000BD000008380240CE3C010896
:105310002DE9F047002400250026A1462548006815
:1053200000F00C0020B1042805D008283AD105E08F
:10533000DFF8849039E0DFF8849036E01D48001FE4
:10534000006800F03F041B48001F006800F4800064
:1053500078B11A481749091F0968C1F38811A0FBE1
:1053600001700146224600233846FBF773F80546D4
:105370000EE011480F49091F0968C1F38811A0FB0D
:1053800001700146224600233846FBF763F80546C4
:105390000848001F0068C0F30140401C4600B5FBF0
:1053A000F6F902E0DFF8109000BF00BF4846BDE804
:1053B000F0870000083802400024F400001BB7000A
:1053C000F8B504460CB90120F8BD207800F00100C2
:1053D000002874D0F948006800F00C0004280DD0B3
:1053E000F648006800F00C00082813D1F348001FAD
:1053F000006800F48000B0F5800F0BD1EF4808384A
:105400000068C0F34040002859D06068002856D199
:105410000120D9E700BF6068B0F5803F08D1E748B8
:105420000838006840F48030E449083908601EE01C
:105430006068B0F5A02F0DD1E0480838006840F44E
:105440008020DE49083908600846006840F4803052
:1054500008600CE0D9480838006820F48030D7494B
:10546000083908600846006820F48020086000BF02
:10547000606890B1FEF7B8F9054606E0FEF7B4F9AA
:10548000401B642801D903209EE7CC4808380068F7
:10549000C0F340400028F1D011E0FEF7A5F9054621
:1054A00006E0FEF7A1F9401B642801D903208BE731
:1054B000C24808380068C0F340400028F1D1207885
:1054C00000F0020002285FD1BC48006800F00C0028
:1054D00058B1BA48006800F00C0008281CD1B74841
:1054E000001F006800F48000B0B9B44808380068B4
:1054F000C0F3400020B1E068012801D0012063E73B
:10550000AE480838006820F0F800216940EAC10080
:10551000AA490839086037E0E06800B30120A849CB
:105520000860FEF761F9054606E0FEF75DF9401BED
:10553000022801D9032047E7A04808380068C0F3D3
:1055400040000028F1D09D480838006820F0F8009D
:10555000216940EAC10099490839086014E0002037
:1055600097490860FEF740F9054606E0FEF73CF96A
:10557000401B022801D9032026E79048083800681C
:10558000C0F340000028F1D1207800F0080008287E
:105590002CD16069A8B101208A490860FEF724F97E
:1055A000054606E0FEF720F9401B022801D903203A
:1055B0000AE782486C300068C0F340000028F1D050
:1055C00014E000207F490860FEF70EF9054606E06A
:1055D000FEF70AF9401B022801D90320F4E67748B8
:1055E0006C300068C0F340000028F1D1207800F052
:1055F0000400042870D1002770483830006800F09B
:10560000805090B900BF002000906C48383000688E
:1056100040F080506949383108600846006800F061
:105620008050009000BF00BF01276748006800F469
:105630008070B0B96448006840F4807062490860C6
:10564000FEF7D2F8054606E0FEF7CEF8401B02282A
:1056500001D90320B8E65C48006800F48070002897
:10566000F2D000BFA068012808D154486830006813
:1056700040F001005149683108601DE0A06805282C
:105680000DD14E486830006840F004004B49683145
:1056900008600846006840F0010008600CE04748D8
:1056A0006830006820F0010044496831086008460D
:1056B000006820F00400086000BFA068A8B1FEF7F1
:1056C00093F8054609E0FEF78FF8401B41F2883158
:1056D000884202D9032077E626E03848683000681F
:1056E000C0F340000028EED013E0FEF77DF8054639
:1056F00008E0FEF779F8401B41F28831884201D971
:10570000032061E62D4868300068C0F3400000289F
:10571000EFD1012F07D129483830006820F08050A0
:1057200026493831086000BFA069002845D02348C9
:10573000006800F00C0008285DD0A069022845D15F
:1057400000201F490866FEF74FF8054606E0FEF701
:105750004BF8401B022801D9032035E617480838CA
:105760000068C0F340600028F1D1D4E90701084384
:10577000616A40EA81110122A06AC2EB500041EA4D
:1057800000412C20005D41EA00600C49091F0860BF
:1057900001200B490866FEF727F8054606E0FEF7EC
:1057A00023F8401B022801D903200DE603480838DE
:1057B0000068C0F340600028F1D049E0083802409A
:1057C00000004742800E47420070004000202149FF
:1057D0000866FEF709F8054606E0FEF705F8401BE7
:1057E000022801D90320EFE51B480068C0F34060A0
:1057F0000028F2D12CE0A069012800D1E4E5164888
:10580000001D0668A069012820D006F48001E06927
:1058100081421BD106F03F01206A814216D147F632
:10582000C0703040616AB0EB811F0FD106F4403187
:105830000122A06AC2EB5000B1EB004F06D106F086
:1058400070612C20005DB1EB006F01D00120BBE541
:105850000020B9E5000047420038024010B5044678
:105860000CB9012010BD607920B9002020712046BC
:1058700000F00EF8022060712068006840F004001B
:1058800021680860012060710020A06000BFE9E786
:1058900008B50A4A016891420FD100BF002100916A
:1058A0000749096841F04001054A1160114609683D
:1058B00001F04001009100BF00BF08BD0008065084
:1058C0003438024070B5044601250CB9012070BD82
:1058D000607F20B900202077204600F045F80220A4
:1058E000607700BFCA20216848625320216848625F
:1058F00000BF204603F0F8F80546EDB9206880683F
:105900001849084021688860216960680843616916
:105910000843216889680843216888602168E06835
:10592000086120680169208941EA00402168086116
:10593000204603F0FEF805466DB92068006C20F49F
:105940008020216808642068006CA16908432168F0
:1059500008640120607700BFFF202168486200BF13
:105960002846B4E7BFFF8FFF1FB504460020009014
:105970000190029003900949206888420CD10220CE
:105980000090074803906846FFF704FB08B1FCF756
:10599000F9F90120034908601FBD000000280040FC
:1059A00000031E003C0E474270B5044600252068E7
:1059B000C06820F0A0002168C860FDF715FF05460B
:1059C00007E0FDF711FF401BB0F57A7F01D90320F6
:1059D00070BD2068C06800F020000028F1D00020D1
:1059E000F6E710B504460CB9012010BD606A38B95D
:1059F0006068B0F5827F00D105E00021E16102E03E
:105A00000021216161610021A16294F8510028B94F
:105A1000002084F85000204600F048F8022084F866
:105A200051002068006820F0400021680860A088CC
:105A300000F48270218901F404410843A18901F432
:105A400000610843217C01F002010843217D01F03F
:105A500001010843218B01F400710843217F01F00B
:105A6000380108432021095D01F080010843218DA0
:105A700001F400510843216808600421A06901EA8B
:105A8000104094F8241001F0100108432168486088
:105A90002068C06920F400602168C861002060654A
:105AA000012084F8510000209FE7000010B586B067
:105AB0000446142101A8FAF704FE674920688842C9
:105AC0007ED100BF002000906448006840F4805000
:105AD000624908600846006800F48050009000BFEA
